{
  "abi": [
    {
      "type": "constructor",
      "inputs": [],
      "stateMutability": "nonpayable"
    },
    {
      "type": "function",
      "name": "allScores",
      "inputs": [
        {
          "name": "",
          "type": "uint256",
          "internalType": "uint256"
        }
      ],
      "outputs": [
        {
          "name": "player",
          "type": "address",
          "internalType": "address"
        },
        {
          "name": "username",
          "type": "string",
          "internalType": "string"
        },
        {
          "name": "score",
          "type": "uint256",
          "internalType": "uint256"
        },
        {
          "name": "bestStreak",
          "type": "uint256",
          "internalType": "uint256"
        },
        {
          "name": "timestamp",
          "type": "uint256",
          "internalType": "uint256"
        }
      ],
      "stateMutability": "view"
    },
    {
      "type": "function",
      "name": "getAllScoresCount",
      "inputs": [],
      "outputs": [
        {
          "name": "",
          "type": "uint256",
          "internalType": "uint256"
        }
      ],
      "stateMutability": "view"
    },
    {
      "type": "function",
      "name": "getHighScore",
      "inputs": [
        {
          "name": "_player",
          "type": "address",
          "internalType": "address"
        }
      ],
      "outputs": [
        {
          "name": "score",
          "type": "uint256",
          "internalType": "uint256"
        },
        {
          "name": "bestStreak",
          "type": "uint256",
          "internalType": "uint256"
        },
        {
          "name": "username",
          "type": "string",
          "internalType": "string"
        }
      ],
      "stateMutability": "view"
    },
    {
      "type": "function",
      "name": "getPlayerBestScore",
      "inputs": [
        {
          "name": "_player",
          "type": "address",
          "internalType": "address"
        }
      ],
      "outputs": [
        {
          "name": "",
          "type": "tuple",
          "internalType": "struct SantaScores.Score",
          "components": [
            {
              "name": "player",
              "type": "address",
              "internalType": "address"
            },
            {
              "name": "username",
              "type": "string",
              "internalType": "string"
            },
            {
              "name": "score",
              "type": "uint256",
              "internalType": "uint256"
            },
            {
              "name": "bestStreak",
              "type": "uint256",
              "internalType": "uint256"
            },
            {
              "name": "timestamp",
              "type": "uint256",
              "internalType": "uint256"
            }
          ]
        }
      ],
      "stateMutability": "view"
    },
    {
      "type": "function",
      "name": "getPlayerScores",
      "inputs": [
        {
          "name": "_player",
          "type": "address",
          "internalType": "address"
        }
      ],
      "outputs": [
        {
          "name": "",
          "type": "tuple[]",
          "internalType": "struct SantaScores.Score[]",
          "components": [
            {
              "name": "player",
              "type": "address",
              "internalType": "address"
            },
            {
              "name": "username",
              "type": "string",
              "internalType": "string"
            },
            {
              "name": "score",
              "type": "uint256",
              "internalType": "uint256"
            },
            {
              "name": "bestStreak",
              "type": "uint256",
              "internalType": "uint256"
            },
            {
              "name": "timestamp",
              "type": "uint256",
              "internalType": "uint256"
            }
          ]
        }
      ],
      "stateMutability": "view"
    },
    {
      "type": "function",
      "name": "owner",
      "inputs": [],
      "outputs": [
        {
          "name": "",
          "type": "address",
          "internalType": "address"
        }
      ],
      "stateMutability": "view"
    },
    {
      "type": "function",
      "name": "playerBestScore",
      "inputs": [
        {
          "name": "",
          "type": "address",
          "internalType": "address"
        }
      ],
      "outputs": [
        {
          "name": "player",
          "type": "address",
          "internalType": "address"
        },
        {
          "name": "username",
          "type": "string",
          "internalType": "string"
        },
        {
          "name": "score",
          "type": "uint256",
          "internalType": "uint256"
        },
        {
          "name": "bestStreak",
          "type": "uint256",
          "internalType": "uint256"
        },
        {
          "name": "timestamp",
          "type": "uint256",
          "internalType": "uint256"
        }
      ],
      "stateMutability": "view"
    },
    {
      "type": "function",
      "name": "playerScores",
      "inputs": [
        {
          "name": "",
          "type": "address",
          "internalType": "address"
        },
        {
          "name": "",
          "type": "uint256",
          "internalType": "uint256"
        }
      ],
      "outputs": [
        {
          "name": "player",
          "type": "address",
          "internalType": "address"
        },
        {
          "name": "username",
          "type": "string",
          "internalType": "string"
        },
        {
          "name": "score",
          "type": "uint256",
          "internalType": "uint256"
        },
        {
          "name": "bestStreak",
          "type": "uint256",
          "internalType": "uint256"
        },
        {
          "name": "timestamp",
          "type": "uint256",
          "internalType": "uint256"
        }
      ],
      "stateMutability": "view"
    },
    {
      "type": "function",
      "name": "submitScore",
      "inputs": [
        {
          "name": "_username",
          "type": "string",
          "internalType": "string"
        },
        {
          "name": "_score",
          "type": "uint256",
          "internalType": "uint256"
        },
        {
          "name": "_bestStreak",
          "type": "uint256",
          "internalType": "uint256"
        }
      ],
      "outputs": [],
      "stateMutability": "nonpayable"
    },
    {
      "type": "event",
      "name": "NewHighScore",
      "inputs": [
        {
          "name": "player",
          "type": "address",
          "indexed": true,
          "internalType": "address"
        },
        {
          "name": "username",
          "type": "string",
          "indexed": false,
          "internalType": "string"
        },
        {
          "name": "score",
          "type": "uint256",
          "indexed": false,
          "internalType": "uint256"
        },
        {
          "name": "timestamp",
          "type": "uint256",
          "indexed": false,
          "internalType": "uint256"
        }
      ],
      "anonymous": false
    },
    {
      "type": "event",
      "name": "ScoreSubmitted",
      "inputs": [
        {
          "name": "player",
          "type": "address",
          "indexed": true,
          "internalType": "address"
        },
        {
          "name": "username",
          "type": "string",
          "indexed": false,
          "internalType": "string"
        },
        {
          "name": "score",
          "type": "uint256",
          "indexed": false,
          "internalType": "uint256"
        },
        {
          "name": "bestStreak",
          "type": "uint256",
          "indexed": false,
          "internalType": "uint256"
        },
        {
          "name": "timestamp",
          "type": "uint256",
          "indexed": false,
          "internalType": "uint256"
        }
      ],
      "anonymous": false
    }
  ],
  "bytecode": {
    "object": "0x6080604052348015600e575f5ffd5b503360035f6101000a81548173ffffffffffffffffffffffffffffffffffffffff021916908373ffffffffffffffffffffffffffffffffffffffff16021790555061184b8061005c5f395ff3fe608060405234801561000f575f5ffd5b5060043610610091575f3560e01c8063a03d2e7711610064578063a03d2e7714610135578063a811748414610169578063b162f2571461019d578063cd382680146101cd578063cd64a862146101fd57610091565b80634bb282f81461009557806357171a48146100b157806373055bc3146100e35780638da5cb5b14610117575b5f5ffd5b6100af60048036038101906100aa9190610f0e565b61021b565b005b6100cb60048036038101906100c69190610fd4565b61060e565b6040516100da9392919061106e565b60405180910390f35b6100fd60048036038101906100f891906110aa565b61077c565b60405161010e9594939291906110f7565b60405180910390f35b61011f61086c565b60405161012c919061114f565b60405180910390f35b61014f600480360381019061014a9190611168565b610891565b6040516101609594939291906110f7565b60405180910390f35b610183600480360381019061017e9190610fd4565b610977565b6040516101949594939291906110f7565b60405180910390f35b6101b760048036038101906101b29190610fd4565b610a4e565b6040516101c49190611327565b60405180910390f35b6101e760048036038101906101e29190610fd4565b610be8565b6040516101f491906113ba565b60405180910390f35b610205610d41565b60405161021291906113da565b60405180910390f35b5f821161025d576040517f08c379a00000000000000000000000000000000000000000000000000000000081526004016102549061143d565b60405180910390fd5b5f8351116102a0576040517f08c379a0000000000000000000000000000000000000000000000000000000008152600401610297906114a5565b60405180910390fd5b5f6040518060a001604052803373ffffffffffffffffffffffffffffffffffffffff1681526020018581526020018481526020018381526020014281525090505f5f3373ffffffffffffffffffffffffffffffffffffffff1673ffffffffffffffffffffffffffffffffffffffff1681526020019081526020015f2081908060018154018082558091505060019003905f5260205f2090600502015f909190919091505f820151815f015f6101000a81548173ffffffffffffffffffffffffffffffffffffffff021916908373ffffffffffffffffffffffffffffffffffffffff160217905550602082015181600101908161039c91906116c0565b506040820151816002015560608201518160030155608082015181600401555050600281908060018154018082558091505060019003905f5260205f2090600502015f909190919091505f820151815f015f6101000a81548173ffffffffffffffffffffffffffffffffffffffff021916908373ffffffffffffffffffffffffffffffffffffffff160217905550602082015181600101908161043f91906116c0565b5060408201518160020155606082015181600301556080820151816004015550508260015f3373ffffffffffffffffffffffffffffffffffffffff1673ffffffffffffffffffffffffffffffffffffffff1681526020019081526020015f206002015410156105b4578060015f3373ffffffffffffffffffffffffffffffffffffffff1673ffffffffffffffffffffffffffffffffffffffff1681526020019081526020015f205f820151815f015f6101000a81548173ffffffffffffffffffffffffffffffffffffffff021916908373ffffffffffffffffffffffffffffffffffffffff160217905550602082015181600101908161053f91906116c0565b506040820151816002015560608201518160030155608082015181600401559050503373ffffffffffffffffffffffffffffffffffffffff167f8e1f15c1d23eb657fb7917e0b6d6efc184141b42004e152d8a5a546540a463468585426040516105ab9392919061178f565b60405180910390a25b3373ffffffffffffffffffffffffffffffffffffffff167f50363b95571fb95ce2dd9567789ccac4dbe71761302e73751a868630ad08e8948585854260405161060094939291906117cb565b60405180910390a250505050565b5f5f60605f60015f8673ffffffffffffffffffffffffffffffffffffffff1673ffffffffffffffffffffffffffffffffffffffff1681526020019081526020015f206040518060a00160405290815f82015f9054906101000a900473ffffffffffffffffffffffffffffffffffffffff1673ffffffffffffffffffffffffffffffffffffffff1673ffffffffffffffffffffffffffffffffffffffff1681526020016001820180546106bf906114f0565b80601f01602080910402602001604051908101604052809291908181526020018280546106eb906114f0565b80156107365780601f1061070d57610100808354040283529160200191610736565b820191905f5260205f20905b81548152906001019060200180831161071957829003601f168201915b5050505050815260200160028201548152602001600382015481526020016004820154815250509050806040015181606001518260200151935093509350509193909250565b5f602052815f5260405f208181548110610794575f80fd5b905f5260205f2090600502015f9150915050805f015f9054906101000a900473ffffffffffffffffffffffffffffffffffffffff16908060010180546107d9906114f0565b80601f0160208091040260200160405190810160405280929190818152602001828054610805906114f0565b80156108505780601f1061082757610100808354040283529160200191610850565b820191905f5260205f20905b81548152906001019060200180831161083357829003601f168201915b5050505050908060020154908060030154908060040154905085565b60035f9054906101000a900473ffffffffffffffffffffffffffffffffffffffff1681565b600281815481106108a0575f80fd5b905f5260205f2090600502015f91509050805f015f9054906101000a900473ffffffffffffffffffffffffffffffffffffffff16908060010180546108e4906114f0565b80601f0160208091040260200160405190810160405280929190818152602001828054610910906114f0565b801561095b5780601f106109325761010080835404028352916020019161095b565b820191905f5260205f20905b81548152906001019060200180831161093e57829003601f168201915b5050505050908060020154908060030154908060040154905085565b6001602052805f5260405f205f91509050805f015f9054906101000a900473ffffffffffffffffffffffffffffffffffffffff16908060010180546109bb906114f0565b80601f01602080910402602001604051908101604052809291908181526020018280546109e7906114f0565b8015610a325780601f10610a0957610100808354040283529160200191610a32565b820191905f5260205f20905b815481529060010190602001808311610a1557829003601f168201915b5050505050908060020154908060030154908060040154905085565b60605f5f8373ffffffffffffffffffffffffffffffffffffffff1673ffffffffffffffffffffffffffffffffffffffff1681526020019081526020015f20805480602002602001604051908101604052809291908181526020015f905b82821015610bdd578382905f5260205f2090600502016040518060a00160405290815f82015f9054906101000a900473ffffffffffffffffffffffffffffffffffffffff1673ffffffffffffffffffffffffffffffffffffffff1673ffffffffffffffffffffffffffffffffffffffff168152602001600182018054610b30906114f0565b80601f0160208091040260200160405190810160405280929190818152602001828054610b5c906114f0565b8015610ba75780601f10610b7e57610100808354040283529160200191610ba7565b820191905f5260205f20905b815481529060010190602001808311610b8a57829003601f168201915b50505050508152602001600282015481526020016003820154815260200160048201548152505081526020019060010190610aab565b505050509050919050565b610bf0610d4d565b60015f8373ffffffffffffffffffffffffffffffffffffffff1673ffffffffffffffffffffffffffffffffffffffff1681526020019081526020015f206040518060a00160405290815f82015f9054906101000a900473ffffffffffffffffffffffffffffffffffffffff1673ffffffffffffffffffffffffffffffffffffffff1673ffffffffffffffffffffffffffffffffffffffff168152602001600182018054610c9c906114f0565b80601f0160208091040260200160405190810160405280929190818152602001828054610cc8906114f0565b8015610d135780601f10610cea57610100808354040283529160200191610d13565b820191905f5260205f20905b815481529060010190602001808311610cf657829003601f168201915b5050505050815260200160028201548152602001600382015481526020016004820154815250509050919050565b5f600280549050905090565b6040518060a001604052805f73ffffffffffffffffffffffffffffffffffffffff168152602001606081526020015f81526020015f81526020015f81525090565b5f604051905090565b5f5ffd5b5f5ffd5b5f5ffd5b5f5ffd5b5f601f19601f8301169050919050565b7f4e487b71000000000000000000000000000000000000000000000000000000005f52604160045260245ffd5b610ded82610da7565b810181811067ffffffffffffffff82111715610e0c57610e0b610db7565b5b80604052505050565b5f610e1e610d8e565b9050610e2a8282610de4565b919050565b5f67ffffffffffffffff821115610e4957610e48610db7565b5b610e5282610da7565b9050602081019050919050565b828183375f83830152505050565b5f610e7f610e7a84610e2f565b610e15565b905082815260208101848484011115610e9b57610e9a610da3565b5b610ea6848285610e5f565b509392505050565b5f82601f830112610ec257610ec1610d9f565b5b8135610ed2848260208601610e6d565b91505092915050565b5f819050919050565b610eed81610edb565b8114610ef7575f5ffd5b50565b5f81359050610f0881610ee4565b92915050565b5f5f5f60608486031215610f2557610f24610d97565b5b5f84013567ffffffffffffffff811115610f4257610f41610d9b565b5b610f4e86828701610eae565b9350506020610f5f86828701610efa565b9250506040610f7086828701610efa565b9150509250925092565b5f73ffffffffffffffffffffffffffffffffffffffff82169050919050565b5f610fa382610f7a565b9050919050565b610fb381610f99565b8114610fbd575f5ffd5b50565b5f81359050610fce81610faa565b92915050565b5f60208284031215610fe957610fe8610d97565b5b5f610ff684828501610fc0565b91505092915050565b61100881610edb565b82525050565b5f81519050919050565b5f82825260208201905092915050565b8281835e5f83830152505050565b5f6110408261100e565b61104a8185611018565b935061105a818560208601611028565b61106381610da7565b840191505092915050565b5f6060820190506110815f830186610fff565b61108e6020830185610fff565b81810360408301526110a08184611036565b9050949350505050565b5f5f604083850312156110c0576110bf610d97565b5b5f6110cd85828601610fc0565b92505060206110de85828601610efa565b9150509250929050565b6110f181610f99565b82525050565b5f60a08201905061110a5f8301886110e8565b818103602083015261111c8187611036565b905061112b6040830186610fff565b6111386060830185610fff565b6111456080830184610fff565b9695505050505050565b5f6020820190506111625f8301846110e8565b92915050565b5f6020828403121561117d5761117c610d97565b5b5f61118a84828501610efa565b91505092915050565b5f81519050919050565b5f82825260208201905092915050565b5f819050602082019050919050565b6111c581610f99565b82525050565b5f82825260208201905092915050565b5f6111e58261100e565b6111ef81856111cb565b93506111ff818560208601611028565b61120881610da7565b840191505092915050565b61121c81610edb565b82525050565b5f60a083015f8301516112375f8601826111bc565b506020830151848203602086015261124f82826111db565b91505060408301516112646040860182611213565b5060608301516112776060860182611213565b50608083015161128a6080860182611213565b508091505092915050565b5f6112a08383611222565b905092915050565b5f602082019050919050565b5f6112be82611193565b6112c8818561119d565b9350836020820285016112da856111ad565b805f5b8581101561131557848403895281516112f68582611295565b9450611301836112a8565b925060208a019950506001810190506112dd565b50829750879550505050505092915050565b5f6020820190508181035f83015261133f81846112b4565b905092915050565b5f60a083015f83015161135c5f8601826111bc565b506020830151848203602086015261137482826111db565b91505060408301516113896040860182611213565b50606083015161139c6060860182611213565b5060808301516113af6080860182611213565b508091505092915050565b5f6020820190508181035f8301526113d28184611347565b905092915050565b5f6020820190506113ed5f830184610fff565b92915050565b7f53636f7265206d7573742062652067726561746572207468616e2030000000005f82015250565b5f611427601c83611018565b9150611432826113f3565b602082019050919050565b5f6020820190508181035f8301526114548161141b565b9050919050565b7f557365726e616d652072657175697265640000000000000000000000000000005f82015250565b5f61148f601183611018565b915061149a8261145b565b602082019050919050565b5f6020820190508181035f8301526114bc81611483565b9050919050565b7f4e487b71000000000000000000000000000000000000000000000000000000005f52602260045260245ffd5b5f600282049050600182168061150757607f821691505b60208210810361151a576115196114c3565b5b50919050565b5f819050815f5260205f209050919050565b5f6020601f8301049050919050565b5f82821b905092915050565b5f6008830261157c7fffffffffffffffffffffffffffffffffffffffffffffffffffffffffffffffff82611541565b6115868683611541565b95508019841693508086168417925050509392505050565b5f819050919050565b5f6115c16115bc6115b784610edb565b61159e565b610edb565b9050919050565b5f819050919050565b6115da836115a7565b6115ee6115e6826115c8565b84845461154d565b825550505050565b5f5f905090565b6116056115f6565b6116108184846115d1565b505050565b5b81811015611633576116285f826115fd565b600181019050611616565b5050565b601f8211156116785761164981611520565b61165284611532565b81016020851015611661578190505b61167561166d85611532565b830182611615565b50505b505050565b5f82821c905092915050565b5f6116985f198460080261167d565b1980831691505092915050565b5f6116b08383611689565b9150826002028217905092915050565b6116c98261100e565b67ffffffffffffffff8111156116e2576116e1610db7565b5b6116ec82546114f0565b6116f7828285611637565b5f60209050601f831160018114611728575f8415611716578287015190505b61172085826116a5565b865550611787565b601f19841661173686611520565b5f5b8281101561175d57848901518255600182019150602085019450602081019050611738565b8683101561177a5784890151611776601f891682611689565b8355505b6001600288020188555050505b505050505050565b5f6060820190508181035f8301526117a78186611036565b90506117b66020830185610fff565b6117c36040830184610fff565b949350505050565b5f6080820190508181035f8301526117e38187611036565b90506117f26020830186610fff565b6117ff6040830185610fff565b61180c6060830184610fff565b9594505050505056fea2646970667358221220d9eaa8ec8e99dc65197ec83800d85379522d05046a71f7c2d3bc1abe9ff058c564736f6c634300081c0033",
    "linkReferences": {}
  },
  "methodIdentifiers": {
    "allScores(uint256)": "a03d2e77",
    "getAllScoresCount()": "cd64a862",
    "getHighScore(address)": "57171a48",
    "getPlayerBestScore(address)": "cd382680",
    "getPlayerScores(address)": "b162f257",
    "owner()": "8da5cb5b",
    "playerBestScore(address)": "a8117484",
    "playerScores(address,uint256)": "73055bc3",
    "submitScore(string,uint256,uint256)": "4bb282f8"
  },
  "id": 24
}